:100000000C9462000C948A000C948A000C948A0070
:100010000C948A000C948A000C948A000C948A0038
:100020000C948A000C948A000C948A000C948A0028
:100030000C948A000C948A000C948A000C948A0018
:100040000C94EE050C948A000C948A000C948A009F
:100050000C948A000C948A000C948A000C948A00F8
:100060000C9438060C948A0000000000240027003D
:100070002A0000000000250028002B0000000000DE
:1000800023002600290004040404040404040202DA
:100090000202020203030303030301020408102007
:1000A0004080010204081020010204081020000012
:1000B0000008000201000003040700000000000027
:1000C0000000570711241FBECFEFD8E0DEBFCDBF21
:1000D00011E0A0E0B1E0ECE2FAE102C005900D927F
:1000E000AE33B107D9F722E0AEE3B1E001C01D9213
:1000F000AC32B207E1F710E0C2E6D0E004C02197CD
:10010000FE010E94360AC136D107C9F70E94850751
:100110000C94140D0C940000833081F028F481308D
:1001200099F08230A9F008958730A9F08830C9F09D
:100130008430B1F4809180008F7D03C08091800075
:100140008F7780938000089584B58F7784BD08955C
:1001500084B58F7DFBCF8091B0008F778093B00006
:1001600008958091B0008F7DF9CFCF93DF93282F32
:1001700030E0F901E255FF4F8491F901E656FF4F57
:10018000D491F901EA57FF4FC491CC23A1F081111A
:100190000E948C00EC2FF0E0EE0FFF1FE458FF4FA1
:1001A000A591B491EC91ED2381E090E009F480E019
:1001B000DF91CF91089580E090E0FACF1F93CF9325
:1001C000DF93282F30E0F901E255FF4F8491F901C8
:1001D000E656FF4FD491F901EA57FF4FC491CC2363
:1001E000A9F0162F81110E948C00EC2FF0E0EE0F89
:1001F000FF1FEE58FF4FA591B4918FB7F894EC9183
:10020000111108C0D095DE23DC938FBFDF91CF9111
:100210001F910895DE2BF8CFCF93DF9390E0FC0180
:10022000E656FF4F24918A579F4FFC018491882303
:10023000D1F090E0880F991FFC01E859FF4FA5917C
:10024000B491FC01EE58FF4FC591D491623071F426
:100250009FB7F8943C91822F809583238C93E881FB
:100260002E2B28839FBFDF91CF9108958FB7F894ED
:10027000EC912E2B2C938FBFF6CF3FB7F894809143
:10028000B4019091B501A091B601B091B70126B526
:10029000A89B05C02F3F19F00196A11DB11D3FBFBE
:1002A000BA2FA92F982F8827BC01CD01620F711D8D
:1002B000811D911D42E0660F771F881F991F4A9587
:1002C000D1F708958F929F92AF92BF92CF92DF9213
:1002D000EF92FF924B015C010E943D016B017C019A
:1002E0000E943D016C197D098E099F09683E73408B
:1002F00081059105A8F321E0821A9108A108B108AF
:1003000088EEC80E83E0D81EE11CF11C8114910414
:10031000A104B10429F7FF90EF90DF90CF90BF9038
:10032000AF909F908F90089508950895AF92BF92D7
:10033000CF92DF92EF92FF920F931F93CF93DF93B1
:100340006C017B018B01040F151FEB015E01AE18E0
:10035000BF08C017D10759F06991D601ED91FC9102
:100360000190F081E02DC6010995892B79F7C5012F
:10037000DF91CF911F910F91FF90EF90DF90CF9081
:10038000BF90AF90089520915F01260F3327331F50
:1003900021323105ECF42091DE01FC0190E080E097
:1003A000243069F082E00895A0915F012191AC01B1
:1003B000415C5E4FA40FB52FB11D2C93019686179B
:1003C00098F380915F01680F60935F0180E008956A
:1003D00081E008951092DE0181E08093DD011092AA
:1003E000B80161E082E10E94DE0061E083E10E94E9
:1003F000DE00E9EBF0E080818E7F808380818D7F5D
:10040000808388E48093B80085E48093BC000895DD
:10041000CF93DF9391E090933E018823B9F0C09190
:10042000B800D091BA008091BC008A7B8093BC0058
:1004300060E082E10E94DE0060E083E10E94DE0075
:100440000E94EA01D093BA00C093B800DF91CF9127
:1004500008958F929F92AF92BF92CF92DF92EF92C8
:10046000FF920F931F93CF93DF93D0910702D13266
:1004700008F0D7C0182FC09106020E943D016B0101
:100480007C018091DE0181116BC082E08093DE01EE
:100490001093DD018FEF8093DC011092DB01D0938C
:1004A000DA01A6EEB1E0EAEBF1E080E0D81391C00A
:1004B0001092B9018091B901CC0FC82BC093B9013A
:1004C0008091B801813009F088C01092B8010E9473
:1004D0003D016B017C018091B9018093BB0080914B
:1004E000E0019091E101A091E201B091E301892B3B
:1004F0008A2B8B2BA1F00E943D010091E00110910D
:10050000E1012091E2013091E3016C197D098E092E
:100510009F09061717072807390708F442C080917A
:10052000BC0083FDD8CF85EC8093BC000E943D01C8
:100530006B017C018091DE01823009F450C0809112
:10054000DC018F3F09F46FC08091DC01803209F437
:100550006CC08091DC01803309F469C084E026C05E
:100560008091E0019091E101A091E201B091E3015D
:10057000892B8A2B8B2B09F484CF0E943D0180901C
:10058000E0019090E101A090E201B090E3016C19CC
:100590007D098E099F0986169706A806B90608F0F8
:1005A00070CF8091DF010E94080285E01092E50182
:1005B000109207021092E401DF91CF911F910F91E9
:1005C000FF90EF90DF90CF90BF90AF909F908F9073
:1005D00008959D9191938F5F69CF85EEA5CF80910E
:1005E000E0019091E101A091E201B091E301892B3A
:1005F0008A2B8B2B09F49ECF0E943D010091E001D4
:100600001091E1012091E2013091E3016C197D0923
:100610008E099F09061717072807390708F08ACFA0
:10062000C0CF81E0C3CF80E0C1CF82E0BFCF83E005
:10063000BDCF0895E091870180918601E81730F4DD
:10064000F0E0E857FE4F808190E008958FEF9FEF34
:10065000089590918701809186012FEF3FEF9817C1
:1006600048F4E92FF0E0E857FE4F208130E09F5F2B
:1006700090938701C9010895809186019091870127
:10068000891B990B0895CF92DF92EF92FF920F93FF
:100690001F93CF93DF937C01CB018A012091E4016A
:1006A000222389F0EB016B01C40ED51ECC15DD05AC
:1006B00069F06991D701ED91FC910190F081E02DF5
:1006C000C7010995F3CF642F0E94C301C801DF91D0
:1006D000CF911F910F91FF90EF90DF90CF900895F1
:1006E000CF93DF931F92CDB7DEB769832091E401EA
:1006F0002223F9F020910702203258F021E030E067
:10070000FC013383228390E080E00F90DF91CF9152
:1007100008958091E501E82FF0E0EA51FE4F9981BC
:1007200090838F5F8093E5018093070281E090E0E2
:10073000ECCF61E0CE0101960E94C301F7CF682F94
:1007400088E092E00C947003089590E080E00895B2
:10075000CF93CAE088E00E94B500892B69F089E058
:100760000E94B500892B41F069E170E080E090E0E3
:100770000E946201C15071F7CF910895FC01019070
:100780000020E9F73197AF01481B590BBC0184E108
:1007900092E00C949601CF93DF93EC0160E08E81A0
:1007A0000E94DE0061E08E810E94DE0060E08E81AA
:1007B0000E94DE008BE891E00197F1F7DF91CF9185
:1007C0000895CF92DF92EF92FF920F931F93CF93F2
:1007D000DF936C017C0187E0E80EF11CD0E0C0E003
:1007E000062F10E0B8010C2E02C0759567950A948B
:1007F000E2F76170F70181917F010E94DE0021968E
:10080000C430D10579F7C601DF91CF911F910F91C7
:10081000FF90EF90DF90CF900C94CB03CF92DF92BC
:10082000EF92FF920F931F93CF93DF93EC01F62E7D
:10083000642F8C810E94DE008D818F3F19F060E073
:100840000E94DE000F2D10E08F8584FF25C06E0111
:1008500087E0C80ED11CF12CE12CB8010E2C02C08F
:10086000759567950A94E2F76170F60181916F01C1
:100870000E94DE00FFEFEF1AFF0A88E0E816F1049D
:1008800061F7CE01DF91CF911F910F91FF90EF9013
:10089000DF90CF900C94CB03B80184E075956795F9
:1008A0008A95E1F7CE010E94E1036F2DCE01DF9121
:1008B000CF911F910F91FF90EF90DF90CF900C940C
:1008C000E10340E0682F84E192E00C940E04CF93A2
:1008D000DF93823029F49091230298609093230251
:1008E000809327021092280280E48093290280E1FD
:1008F00080932A0280E580932B0261E080911802A8
:100900000E940C01809119028F3F19F061E00E9452
:100910000C0161E080911A020E940C01C4E1D2E056
:100920009E01245132408091230284FD0BC084E05B
:1009300090E021962817390744F461E08E810E94E7
:100940000C01EECF88E090E0F4CF8BE39DE00197BF
:10095000F1F760E0809118020E94DE0060E0809173
:100960001A020E94DE00809119028F3F19F060E0A8
:100970000E94DE008091230284FD39C063E084E19F
:1009800092E00E94E103CBE4D6E4CE010197F1F7B7
:1009900063E084E192E00E94E1032197F1F763E0D4
:1009A00084E192E00E94E10383E592E00197F1F790
:1009B00062E084E192E00E94E10380912302806280
:1009C0000E94610484E0809324028CE00E94610410
:1009D00081E00E9461048BE39FE10197F1F782E0DF
:1009E0008093250286E0DF91CF910C9461048062B0
:1009F0000E9461048BE496E40197F1F78091230251
:100A000080620E94610483E592E00197F1F7809192
:100A1000230280620E946104D0CF9091270269175F
:100A200010F06FEF690FE62FF0E0EC5EFD4F948958
:100A3000890F80680C94610441E00E940E0481E0FB
:100A400090E0089585ED8093BC008091E001909145
:100A5000E101A091E201B091E3010796A11DB11D52
:100A600023E0B695A795979587952A95D1F720917C
:100A7000BC0024FD03C01092DE0108954091E00106
:100A80005091E1016091E2017091E301452B462B09
:100A9000472B69F30097A105B10541F02AE22A9599
:100AA000F1F700C00197A109B109E1CF8091DF0101
:100AB0000C940802BF92CF92DF92EF92FF920F93B5
:100AC0001F93CF93DF9300D01F92CDB7DEB7082FCF
:100AD000B62E142F88E00E94B500892BD9F3CE01E1
:100AE00001967C0186E3C82E81E0D82E89E00E9421
:100AF000B500892BC9F51F5F8091AE0181111EC021
:100B0000183100F51F921F93DF92CF92FF92EF9260
:100B10000E943C0A6B2D802F0E940D05C7010E9488
:100B2000BE0368EC70E080E090E00E9462010F90EC
:100B30000F900F900F900F900F90D8CF813021F42D
:100B40001C3300F310E0DECF823021F41032D0F2FB
:100B500011E0D8CF833019F41D30A0F2F9CF8430E2
:100B600089F6143678F2EECF6B2D802F0E940D059A
:100B70008BE391E00E94BE030E94A8031F921F9383
:100B8000DF92CF92FF92EF920E943C0A6B2D802F52
:100B90000E940D05C7010E94BE030E94A80388E0C1
:100BA0000E94B5000F900F900F900F900F900F9034
:100BB000892B09F09BCF8091AE018F5F8093AE01AE
:100BC000812F0F900F900F90DF91CF911F910F9178
:100BD000FF90EF90DF90CF90BF9008951F920F92FB
:100BE0000FB60F9211242F933F938F939F93AF9340
:100BF000BF938091B0019091B101A091B201B091E9
:100C0000B3013091AF0123E0230F2D3758F5019642
:100C1000A11DB11D2093AF018093B0019093B1014C
:100C2000A093B201B093B3018091B4019091B5014A
:100C3000A091B601B091B7010196A11DB11D80939D
:100C4000B4019093B501A093B601B093B701BF91E1
:100C5000AF919F918F913F912F910F900FBE0F9069
:100C60001F90189526E8230F0296A11DB11DD2CF23
:100C70001F920F920FB60F9211242F933F934F9311
:100C80005F936F937F938F939F93AF93BF93EF93F4
:100C9000FF938091B900887F803609F44AC0F0F54F
:100CA000883209F4A7C018F5803109F49BC0B8F464
:100CB000882309F4F9C0883009F494C0FF91EF91BA
:100CC000BF91AF919F918F917F916F915F914F9164
:100CD0003F912F910F900FBE0F901F901895883164
:100CE00009F488C0803251F78093DC0114C080344D
:100CF00009F49DC040F48033B9F38833F9F680934A
:100D0000DC0185ECB0C0803509F485C0883509F474
:100D100096C0883499F60E942205D0CF883909F40C
:100D20008CC038F5883729F050F4883611F08037B8
:100D300029F683E08093DE011092810157C0883844
:100D400009F47BC0803919F0803809F0B7CF809161
:100D50008101803208F071C0E091810181E08E0F45
:100D6000809381018091BB00F0E0EF59FE4F8083BA
:100D70003DC0803B39F0E0F4803A09F479C0883A0C
:100D800009F09CCF84E08093DE0110926001109204
:100D90005F01E0918401F0918501099580915F01E7
:100DA00081110FC081E080935F0110923F0109C063
:100DB000803C09F4A6CF883C09F4A3CF883B09F016
:100DC0007DCFE091600181E08E0F80936001F0E0C3
:100DD000E15CFE4F80818093BB0090916001809127
:100DE0005F0129C08091B9018093BB0085EC80939D
:100DF000BC0064CF9091DB018091DA01981758F51F
:100E0000E091DB0181E08E0F8093DB01F0E0E6549E
:100E1000FE4F8081E9CFE091DB0181E08E0F80936E
:100E2000DB018091BB00F0E0E654FE4F808390919F
:100E3000DB018091DA019817C8F285E8D8CFE091FC
:100E4000DB0181E08E0F8093DB018091BB00F0E03D
:100E5000E654FE4F80838091DD0181115CCF81E0FB
:100E60008093B80184EA8093BC001092DE0126CF03
:100E700085EC8093BC001092DE018091810180326C
:100E800030F4E0918101F0E0EF59FE4F1082609163
:100E9000810170E0E0918201F091830181E691E0AF
:100EA0000995109281010ACF1092DC0134CFE8E05D
:100EB000F2E01382128288EE93E0A0E0B0E0848337
:100EC0009583A683B7838CE191E091838083E4E1ED
:100ED000F2E0138212828EE291E09183808384E0BB
:100EE000848385E0858386E086838BE087838CE03E
:100EF00080878DE081878EE0828713861486158631
:100F00001686178681E00C946704789484B5826015
:100F100084BD84B5816084BD85B5826085BD85B59D
:100F2000816085BD80916E00816080936E0010921B
:100F30008100809181008260809381008091810096
:100F40008160809381008091800081608093800027
:100F50008091B10084608093B1008091B000816085
:100F60008093B00080917A00846080937A008091B1
:100F70007A00826080937A0080917A008160809309
:100F80007A0080917A00806880937A001092C10084
:100F900062E088E00E940C0162E089E00E940C019E
:100FA00082E00E94670410928701109286011092DD
:100FB000E501109207020E94EA0184E991E0909312
:100FC00085018093840185E991E09093830180936A
:100FD0008201AAE07A2EB5EE2B2EC5EC3C2ED0E095
:100FE0008D2ED0E09D2E18E6612E55245A9406E0F1
:100FF000402E88E00E94B500892B09F092C0109223
:10100000AE014091AD0160E085E00E945A058093F9
:10101000AD014091AC0160E088E00E945A058093E8
:10102000AC014091AB0161E085E00E945A058093DC
:10103000AB014091AA0161E088E00E945A058093CB
:10104000AA014091A90161E08DE00E945A05282F74
:101050008091AC01672D0E942A0A8295807FF82E2C
:10106000F90EF092AC018091AD010E942A0A82959E
:10107000807F082F090F0093AD018091AB010E9482
:101080002A0A8295807F182F190F1093AB01809147
:10109000AA010E942A0A8295807FD82FD90FD09367
:1010A000AA01822F0E942A0A8295807FC82FC90F29
:1010B000C093A90181E08093E4016092060210923E
:1010C000E5011092070290E080E00E949F0390E00B
:1010D00080E00E949F036F2D88E092E00E947003E1
:1010E000602F88E092E00E94700381E090E00E940F
:1010F0009F03612F88E092E00E9470036D2F88E0CB
:1011000092E00E9470036C2F88E092E00E947003CE
:1011100081E00E94290268EC70E080E090E00E948B
:10112000620181E08093E401609206021092E50181
:101130001092070290E080E00E949F0380E00E94EE
:1011400029020E943D016B017C018091DE01811129
:1011500062C081E08093DE018093DD015092DC016A
:101160001092DB014092DA018093B9018091B901BC
:10117000806D8093B9018091B801813009F043C13D
:101180001092B8010E943D016B017C018091B90170
:101190008093BB008091E0019091E101A091E20178
:1011A000B091E301892B8A2B8B2BA1F00E943D018A
:1011B0000091E0011091E1012091E2013091E30101
:1011C0006C197D098E099F0906171707280739072B
:1011D00008F442C08091BC0083FDD8CF3092BC009F
:1011E0000E943D016B017C018091DE01813009F498
:1011F0000DC18091DB01873008F02AC18091DB01AD
:10120000AAEBB1E0E8E8F1E090E0981751F12D91F8
:1012100021939F5FFACF8091E0019091E101A0912D
:10122000E201B091E301892B8A2B8B2B09F48DCF3E
:101230000E943D010091E0011091E1012091E20145
:101240003091E3016C197D098E099F090617170774
:101250002807390708F079CF8091DF010E94080242
:1012600080E0109287018093860188E092E00E94DE
:1012700029035C0188E092E00E9429036C0188E068
:1012800092E00E9429037C0188E092E00E942903F9
:1012900088E092E00E942903EC0188E092E00E943D
:1012A00029038C0188E092E00E9429039C01A5019A
:1012B00084E0559547958A95E1F74F7055278A2D1B
:1012C0008F70749E800D11248093A801A60194E074
:1012D000559547959A95E1F74F7055279C2D9F702E
:1012E000C92E749EC00C1124C092AC01A70164E009
:1012F000559547956A95E1F74F7055279E2D9F703C
:10130000E92E749EE00C1124E092AD01AE0174E070
:10131000559547957A95E1F74F705527CF70749E94
:10132000C00D1124C093AB01A801E4E05595479589
:10133000EA95E1F74F7055270F70749E000D112448
:101340000093AA01A901F4E055954795FA95E1F7B4
:101350004F7055272F70749E200D11242093A901E2
:10136000672D0E942A0A905D90931801805D8093FA
:1013700017018C2D0E942A0A905D90931501805DC3
:10138000809314018E2D0E942A0A905D9093120181
:10139000805D80931101822F0E942A0A905D9093B4
:1013A0000E01805D80930D01802F0E942A0A905DBE
:1013B00090930901805D809308018C2F0E942A0A76
:1013C000905D90930601805D8093050160E080E070
:1013D0000E940D058CE091E00E94BE0361E080E078
:1013E0000E940D0580E091E00E94BE0362E370E080
:1013F00080E090E00E9462018114910409F4F9CD2B
:101400000E940000F6CD2092BC00EACE8091E0015F
:101410009091E101A091E201B091E301892B8A2B27
:101420008B2B09F4E1CE0E943D010091E001109167
:10143000E1012091E2013091E3016C197D098E09EF
:101440009F09061717072807390708F0CDCE04CFE4
:1014500087E0D6CE991B79E004C0991F961708F053
:10146000961B881F7A95C9F780950895EE0FFF1F88
:101470000590F491E02D0994AEE0B0E0E2E4FAE0EA
:101480000C94EB0C0D891E8986E08C831A830983EA
:101490008FEF9FE79E838D83AE01475E5F4F6F891D
:1014A000788DCE0101960E945F0A2F813885020F48
:1014B000131FF80110822E96E4E00C94070DABE0A8
:1014C000B0E0E5E6FAE00C94DD0C7C013B018A011A
:1014D000FC0117821682838181FFC8C1CE0101966B
:1014E0005C01F7019381F30193FD859193FF819155
:1014F0003F01882309F453C1853239F493FD859166
:1015000093FF81913F01853229F4B70190E00E9459
:101510004F0CE7CF912C212C312CFFE1F31538F043
:101520008B3211F190F4803209F1833229F137FCCA
:101530003CC020ED280F2A3050F536FE20C08AE04E
:10154000989E200D1124922E06C08D3291F080338A
:1015500071F7689430F8F30193FD859193FF8191C1
:101560003F018111DACF21C0689431F8689432F8D4
:10157000F2CF689433F8EFCF689434F8ECCFEAE018
:101580002E9E200D1124222E689435F8E4CF8E3241
:1015900029F436FC04C1689436F8DDCF8C3619F492
:1015A000689437F8D8CF8836B1F2982F9F7D95543C
:1015B0009330E0F08336A1F18337C1F1833509F030
:1015C00063C02801F2E04F0E511CF801C080D180A9
:1015D000692D70E036FC02C06FEF7FEFC6010E94FC
:1015E000390C4C01689437F882010AC00C5F1F4F18
:1015F000FFE3F98388248394912C6501E89437F8FC
:1016000033FE2DC0522C8114910471F5552009F43C
:1016100068CFB70180E290E00E944F0C5A94F6CF59
:10162000F801808189830E5F1F4FE4CF2801F2E02B
:101630004F0E511CF801C080D180692D70E036FC3E
:1016400002C06FEF7FEFC6010E94440C4C01820183
:10165000D5CFB70180E290E00E944F0C2A94281465
:10166000190409F0B0F7CECFF60137FC859137FEAB
:1016700081916F01B70190E00E944F0C51105A9474
:10168000F1E08F1A9108BFCF843619F0893609F03E
:1016900077C0F80137FE6BC06081718182819381D0
:1016A0000C5F1F4FF32DFF763F2E97FF09C09095DB
:1016B0008095709561957F4F8F4F9F4F689437F855
:1016C0002AE030E0A5010E947F0CC82ECA188C2C9D
:1016D000432C36FE0CC0E89440F8C91440F434FEA4
:1016E00005C032FC03C0F32DFE7E4F2E892C44FE34
:1016F00095C0FE01EC0DF11D8081803309F087C09B
:10170000242D297E422E842D8870582E43FC95C0AE
:1017100040FE8FC09C2C821418F42C0C922C98182C
:1017200044FE91C0B70180E390E00E944F0C42FE5E
:1017300009C088E790E041FE02C088E590E0B7016B
:101740000E944F0CC91408F48AC0CA94D12C9FEF90
:10175000C91AD90ACA0CDB1CF60182916F01B701C4
:1017600090E00E944F0CAC14BD04B1F74FCF6081E4
:101770007181072E000C880B990B0E5F1F4F92CFC3
:10178000D32CE894D4F82AE030E0853739F1232DC2
:10179000297FD22E8F3601F148F48835A9F0F70160
:1017A000868197812B96E2E10C94F90C803749F001
:1017B0008837A9F7D4FE02C06894D2F820E130E05F
:1017C0000DC06894D4F8F6CF34FE03C0822F866033
:1017D000D82E20E132E002C028E030E0F801D7FE48
:1017E0000FC060817181828193810C5F1F4FA501C1
:1017F0000E947F0CC82ECA183D2CE89437F867CF9A
:101800006081718190E080E00E5F1F4FF0CF42FC5D
:1018100002C0839478CF8394839475CF842D867887
:1018200009F471CFF6CFB70180E290E00E944F0C2F
:1018300083948214C0F3512C73CF522C5818821405
:1018400008F46ECFF8CF842D867809F47BCF8BE235
:1018500041FE80E247FC8DE2B70190E071CFB70115
:1018600080E390E00E944F0C9A946CCF8FEF9FEF33
:1018700099CFFC010590615070400110D8F7809518
:1018800090958E0F9F1F0895FC016150704001904C
:101890000110D8F7809590958E0F9F1F08950F9394
:1018A0001F93CF93DF93182F092FEB018B8181FDBD
:1018B00009C01FEF0FEF812F902FDF91CF911F9164
:1018C0000F91089582FF14C02E813F818C819D81EC
:1018D000281739073CF4E881F981CF0101969983F3
:1018E000888310838E819F8101969F838E83E3CFAF
:1018F000E885F985812F0995892BA1F3DACFFA01C3
:10190000AA27283051F1203181F1E8946F936E7F3E
:101910006E5F7F4F8F4F9F4FAF4FB1E03ED0B4E02F
:101920003CD0670F781F891F9A1FA11D680F791F70
:101930008A1F911DA11D6A0F711D811D911DA11D81
:1019400020D009F468943F912AE0269F1124301991
:10195000305D3193DEF6CF010895462F4770405D2C
:101960004193B3E00FD0C9F7F6CF462F4F70405DDB
:101970004A3318F0495D31FD4052419302D0A9F736
:10198000EACFB4E0A6959795879577956795BA9530
:10199000C9F700976105710508959B01AC010A2EF6
:1019A00006945795479537952795BA95C9F7620FCD
:1019B000731F841F951FA01D08952F923F924F9271
:1019C0005F926F927F928F929F92AF92BF92CF92CF
:1019D000DF92EF92FF920F931F93CF93DF93CDB7D8
:1019E000DEB7CA1BDB0B0FB6F894DEBF0FBECDBF50
:1019F00009942A88398848885F846E847D848C8421
:101A00009B84AA84B984C884DF80EE80FD800C8129
:101A10001B81AA81B981CE0FD11D0FB6F894DEBF0C
:0C1A20000FBECDBFED010895F894FFCF7C
:101A2C00444154453A202F202F32300054494D4523
:101A3C00203A203A203A20000000000070034303B3
:101A4C00A50319033C0329031A03000000001C051D
:0E1A5C009601A503A40325303275002020005A
:00000001FF
